{
  "_format": "hh-sol-artifact-1",
  "contractName": "DegenToken",
  "sourceName": "contracts/DegenToken.sol",
  "abi": [
    {
      "inputs": [],
      "stateMutability": "nonpayable",
      "type": "constructor"
    },
    {
      "anonymous": false,
      "inputs": [
        {
          "indexed": true,
          "internalType": "address",
          "name": "owner",
          "type": "address"
        },
        {
          "indexed": true,
          "internalType": "address",
          "name": "spender",
          "type": "address"
        },
        {
          "indexed": false,
          "internalType": "uint256",
          "name": "value",
          "type": "uint256"
        }
      ],
      "name": "Approval",
      "type": "event"
    },
    {
      "anonymous": false,
      "inputs": [
        {
          "indexed": true,
          "internalType": "address",
          "name": "previousOwner",
          "type": "address"
        },
        {
          "indexed": true,
          "internalType": "address",
          "name": "newOwner",
          "type": "address"
        }
      ],
      "name": "OwnershipTransferred",
      "type": "event"
    },
    {
      "anonymous": false,
      "inputs": [
        {
          "indexed": true,
          "internalType": "address",
          "name": "from",
          "type": "address"
        },
        {
          "indexed": true,
          "internalType": "address",
          "name": "to",
          "type": "address"
        },
        {
          "indexed": false,
          "internalType": "uint256",
          "name": "value",
          "type": "uint256"
        }
      ],
      "name": "Transfer",
      "type": "event"
    },
    {
      "inputs": [
        {
          "internalType": "address",
          "name": "owner",
          "type": "address"
        },
        {
          "internalType": "address",
          "name": "spender",
          "type": "address"
        }
      ],
      "name": "allowance",
      "outputs": [
        {
          "internalType": "uint256",
          "name": "",
          "type": "uint256"
        }
      ],
      "stateMutability": "view",
      "type": "function"
    },
    {
      "inputs": [
        {
          "internalType": "address",
          "name": "spender",
          "type": "address"
        },
        {
          "internalType": "uint256",
          "name": "amount",
          "type": "uint256"
        }
      ],
      "name": "approve",
      "outputs": [
        {
          "internalType": "bool",
          "name": "",
          "type": "bool"
        }
      ],
      "stateMutability": "nonpayable",
      "type": "function"
    },
    {
      "inputs": [
        {
          "internalType": "address",
          "name": "account",
          "type": "address"
        }
      ],
      "name": "balanceOf",
      "outputs": [
        {
          "internalType": "uint256",
          "name": "",
          "type": "uint256"
        }
      ],
      "stateMutability": "view",
      "type": "function"
    },
    {
      "inputs": [
        {
          "internalType": "uint256",
          "name": "amount",
          "type": "uint256"
        }
      ],
      "name": "burn",
      "outputs": [],
      "stateMutability": "nonpayable",
      "type": "function"
    },
    {
      "inputs": [
        {
          "internalType": "address",
          "name": "account",
          "type": "address"
        },
        {
          "internalType": "uint256",
          "name": "amount",
          "type": "uint256"
        }
      ],
      "name": "burnFrom",
      "outputs": [],
      "stateMutability": "nonpayable",
      "type": "function"
    },
    {
      "inputs": [
        {
          "internalType": "uint256",
          "name": "_value",
          "type": "uint256"
        }
      ],
      "name": "burnTokens",
      "outputs": [],
      "stateMutability": "nonpayable",
      "type": "function"
    },
    {
      "inputs": [],
      "name": "decimals",
      "outputs": [
        {
          "internalType": "uint8",
          "name": "",
          "type": "uint8"
        }
      ],
      "stateMutability": "view",
      "type": "function"
    },
    {
      "inputs": [
        {
          "internalType": "address",
          "name": "spender",
          "type": "address"
        },
        {
          "internalType": "uint256",
          "name": "subtractedValue",
          "type": "uint256"
        }
      ],
      "name": "decreaseAllowance",
      "outputs": [
        {
          "internalType": "bool",
          "name": "",
          "type": "bool"
        }
      ],
      "stateMutability": "nonpayable",
      "type": "function"
    },
    {
      "inputs": [],
      "name": "getBalance",
      "outputs": [
        {
          "internalType": "uint256",
          "name": "",
          "type": "uint256"
        }
      ],
      "stateMutability": "view",
      "type": "function"
    },
    {
      "inputs": [
        {
          "internalType": "address",
          "name": "spender",
          "type": "address"
        },
        {
          "internalType": "uint256",
          "name": "addedValue",
          "type": "uint256"
        }
      ],
      "name": "increaseAllowance",
      "outputs": [
        {
          "internalType": "bool",
          "name": "",
          "type": "bool"
        }
      ],
      "stateMutability": "nonpayable",
      "type": "function"
    },
    {
      "inputs": [
        {
          "internalType": "address",
          "name": "to",
          "type": "address"
        },
        {
          "internalType": "uint256",
          "name": "amount",
          "type": "uint256"
        }
      ],
      "name": "mint",
      "outputs": [],
      "stateMutability": "nonpayable",
      "type": "function"
    },
    {
      "inputs": [],
      "name": "name",
      "outputs": [
        {
          "internalType": "string",
          "name": "",
          "type": "string"
        }
      ],
      "stateMutability": "view",
      "type": "function"
    },
    {
      "inputs": [],
      "name": "owner",
      "outputs": [
        {
          "internalType": "address",
          "name": "",
          "type": "address"
        }
      ],
      "stateMutability": "view",
      "type": "function"
    },
    {
      "inputs": [],
      "name": "redeemItem",
      "outputs": [],
      "stateMutability": "nonpayable",
      "type": "function"
    },
    {
      "inputs": [],
      "name": "renounceOwnership",
      "outputs": [],
      "stateMutability": "nonpayable",
      "type": "function"
    },
    {
      "inputs": [],
      "name": "symbol",
      "outputs": [
        {
          "internalType": "string",
          "name": "",
          "type": "string"
        }
      ],
      "stateMutability": "view",
      "type": "function"
    },
    {
      "inputs": [],
      "name": "totalSupply",
      "outputs": [
        {
          "internalType": "uint256",
          "name": "",
          "type": "uint256"
        }
      ],
      "stateMutability": "view",
      "type": "function"
    },
    {
      "inputs": [
        {
          "internalType": "address",
          "name": "to",
          "type": "address"
        },
        {
          "internalType": "uint256",
          "name": "amount",
          "type": "uint256"
        }
      ],
      "name": "transfer",
      "outputs": [
        {
          "internalType": "bool",
          "name": "",
          "type": "bool"
        }
      ],
      "stateMutability": "nonpayable",
      "type": "function"
    },
    {
      "inputs": [
        {
          "internalType": "address",
          "name": "from",
          "type": "address"
        },
        {
          "internalType": "address",
          "name": "to",
          "type": "address"
        },
        {
          "internalType": "uint256",
          "name": "amount",
          "type": "uint256"
        }
      ],
      "name": "transferFrom",
      "outputs": [
        {
          "internalType": "bool",
          "name": "",
          "type": "bool"
        }
      ],
      "stateMutability": "nonpayable",
      "type": "function"
    },
    {
      "inputs": [
        {
          "internalType": "address",
          "name": "newOwner",
          "type": "address"
        }
      ],
      "name": "transferOwnership",
      "outputs": [],
      "stateMutability": "nonpayable",
      "type": "function"
    },
    {
      "inputs": [
        {
          "internalType": "address",
          "name": "_receiver",
          "type": "address"
        },
        {
          "internalType": "uint256",
          "name": "_value",
          "type": "uint256"
        }
      ],
      "name": "transferTokens",
      "outputs": [],
      "stateMutability": "nonpayable",
      "type": "function"
    }
  ],
  "bytecode": "0x60806040523480156200001157600080fd5b506040518060400160405280600581526020017f446567656e0000000000000000000000000000000000000000000000000000008152506040518060400160405280600381526020017f44474e000000000000000000000000000000000000000000000000000000000081525081600390816200008f919062000412565b508060049081620000a1919062000412565b505050620000c4620000b8620000ca60201b60201c565b620000d260201b60201c565b620004f9565b600033905090565b6000600560009054906101000a900473ffffffffffffffffffffffffffffffffffffffff16905081600560006101000a81548173ffffffffffffffffffffffffffffffffffffffff021916908373ffffffffffffffffffffffffffffffffffffffff1602179055508173ffffffffffffffffffffffffffffffffffffffff168173ffffffffffffffffffffffffffffffffffffffff167f8be0079c531659141344cd1fd0a4f28419497f9722a3daafe3b4186f6b6457e060405160405180910390a35050565b600081519050919050565b7f4e487b7100000000000000000000000000000000000000000000000000000000600052604160045260246000fd5b7f4e487b7100000000000000000000000000000000000000000000000000000000600052602260045260246000fd5b600060028204905060018216806200021a57607f821691505b60208210810362000230576200022f620001d2565b5b50919050565b60008190508160005260206000209050919050565b60006020601f8301049050919050565b600082821b905092915050565b6000600883026200029a7fffffffffffffffffffffffffffffffffffffffffffffffffffffffffffffffff826200025b565b620002a686836200025b565b95508019841693508086168417925050509392505050565b6000819050919050565b6000819050919050565b6000620002f3620002ed620002e784620002be565b620002c8565b620002be565b9050919050565b6000819050919050565b6200030f83620002d2565b620003276200031e82620002fa565b84845462000268565b825550505050565b600090565b6200033e6200032f565b6200034b81848462000304565b505050565b5b8181101562000373576200036760008262000334565b60018101905062000351565b5050565b601f821115620003c2576200038c8162000236565b62000397846200024b565b81016020851015620003a7578190505b620003bf620003b6856200024b565b83018262000350565b50505b505050565b600082821c905092915050565b6000620003e760001984600802620003c7565b1980831691505092915050565b6000620004028383620003d4565b9150826002028217905092915050565b6200041d8262000198565b67ffffffffffffffff811115620004395762000438620001a3565b5b62000445825462000201565b6200045282828562000377565b600060209050601f8311600181146200048a576000841562000475578287015190505b620004818582620003f4565b865550620004f1565b601f1984166200049a8662000236565b60005b82811015620004c4578489015182556001820191506020850194506020810190506200049d565b86831015620004e45784890151620004e0601f891682620003d4565b8355505b6001600288020188555050505b505050505050565b6120c080620005096000396000f3fe608060405234801561001057600080fd5b50600436106101375760003560e01c80636d1b229d116100b857806395d89b411161007c57806395d89b4114610316578063a457c2d714610334578063a9059cbb14610364578063bec3fa1714610394578063dd62ed3e146103b0578063f2fde38b146103e057610137565b80636d1b229d1461028657806370a08231146102a2578063715018a6146102d257806379cc6790146102dc5780638da5cb5b146102f857610137565b8063313ce567116100ff578063313ce567146101f6578063395093511461021457806340c10f191461024457806342966c68146102605780634b2b0aa41461027c57610137565b806306fdde031461013c578063095ea7b31461015a57806312065fe01461018a57806318160ddd146101a857806323b872dd146101c6575b600080fd5b6101446103fc565b6040516101519190611342565b60405180910390f35b610174600480360381019061016f91906113fd565b61048e565b6040516101819190611458565b60405180910390f35b6101926104b1565b60405161019f9190611482565b60405180910390f35b6101b06104c1565b6040516101bd9190611482565b60405180910390f35b6101e060048036038101906101db919061149d565b6104cb565b6040516101ed9190611458565b60405180910390f35b6101fe6104fa565b60405161020b919061150c565b60405180910390f35b61022e600480360381019061022991906113fd565b610503565b60405161023b9190611458565b60405180910390f35b61025e600480360381019061025991906113fd565b61053a565b005b61027a60048036038101906102759190611527565b610550565b005b610284610564565b005b6102a0600480360381019061029b9190611527565b6105e0565b005b6102bc60048036038101906102b79190611554565b610637565b6040516102c99190611482565b60405180910390f35b6102da61067f565b005b6102f660048036038101906102f191906113fd565b610693565b005b6103006106b3565b60405161030d9190611590565b60405180910390f35b61031e6106dd565b60405161032b9190611342565b60405180910390f35b61034e600480360381019061034991906113fd565b61076f565b60405161035b9190611458565b60405180910390f35b61037e600480360381019061037991906113fd565b6107e6565b60405161038b9190611458565b60405180910390f35b6103ae60048036038101906103a991906113fd565b610809565b005b6103ca60048036038101906103c591906115ab565b610864565b6040516103d79190611482565b60405180910390f35b6103fa60048036038101906103f59190611554565b6108eb565b005b60606003805461040b9061161a565b80601f01602080910402602001604051908101604052809291908181526020018280546104379061161a565b80156104845780601f1061045957610100808354040283529160200191610484565b820191906000526020600020905b81548152906001019060200180831161046757829003601f168201915b5050505050905090565b60008061049961096e565b90506104a6818585610976565b600191505092915050565b60006104bc33610637565b905090565b6000600254905090565b6000806104d661096e565b90506104e3858285610b3f565b6104ee858585610bcb565b60019150509392505050565b60006012905090565b60008061050e61096e565b905061052f8185856105208589610864565b61052a919061167a565b610976565b600191505092915050565b610542610e41565b61054c8282610ebf565b5050565b61056161055b61096e565b82611015565b50565b600061056e6104fa565b600a61057a91906117e1565b6064610586919061182c565b90508061059233610637565b10156105d3576040517f08c379a00000000000000000000000000000000000000000000000000000000081526004016105ca906118e0565b60405180910390fd5b6105dd3382611015565b50565b806105ea33610637565b101561062b576040517f08c379a000000000000000000000000000000000000000000000000000000000815260040161062290611972565b60405180910390fd5b61063481610550565b50565b60008060008373ffffffffffffffffffffffffffffffffffffffff1673ffffffffffffffffffffffffffffffffffffffff168152602001908152602001600020549050919050565b610687610e41565b61069160006111e2565b565b6106a58261069f61096e565b83610b3f565b6106af8282611015565b5050565b6000600560009054906101000a900473ffffffffffffffffffffffffffffffffffffffff16905090565b6060600480546106ec9061161a565b80601f01602080910402602001604051908101604052809291908181526020018280546107189061161a565b80156107655780601f1061073a57610100808354040283529160200191610765565b820191906000526020600020905b81548152906001019060200180831161074857829003601f168201915b5050505050905090565b60008061077a61096e565b905060006107888286610864565b9050838110156107cd576040517f08c379a00000000000000000000000000000000000000000000000000000000081526004016107c490611a04565b60405180910390fd5b6107da8286868403610976565b60019250505092915050565b6000806107f161096e565b90506107fe818585610bcb565b600191505092915050565b8061081333610637565b1015610854576040517f08c379a000000000000000000000000000000000000000000000000000000000815260040161084b90611a96565b60405180910390fd5b61085f3383836104cb565b505050565b6000600160008473ffffffffffffffffffffffffffffffffffffffff1673ffffffffffffffffffffffffffffffffffffffff16815260200190815260200160002060008373ffffffffffffffffffffffffffffffffffffffff1673ffffffffffffffffffffffffffffffffffffffff16815260200190815260200160002054905092915050565b6108f3610e41565b600073ffffffffffffffffffffffffffffffffffffffff168173ffffffffffffffffffffffffffffffffffffffff1603610962576040517f08c379a000000000000000000000000000000000000000000000000000000000815260040161095990611b28565b60405180910390fd5b61096b816111e2565b50565b600033905090565b600073ffffffffffffffffffffffffffffffffffffffff168373ffffffffffffffffffffffffffffffffffffffff16036109e5576040517f08c379a00000000000000000000000000000000000000000000000000000000081526004016109dc90611bba565b60405180910390fd5b600073ffffffffffffffffffffffffffffffffffffffff168273ffffffffffffffffffffffffffffffffffffffff1603610a54576040517f08c379a0000000000000000000000000000000000000000000000000000000008152600401610a4b90611c4c565b60405180910390fd5b80600160008573ffffffffffffffffffffffffffffffffffffffff1673ffffffffffffffffffffffffffffffffffffffff16815260200190815260200160002060008473ffffffffffffffffffffffffffffffffffffffff1673ffffffffffffffffffffffffffffffffffffffff168152602001908152602001600020819055508173ffffffffffffffffffffffffffffffffffffffff168373ffffffffffffffffffffffffffffffffffffffff167f8c5be1e5ebec7d5bd14f71427d1e84f3dd0314c0f7b2291e5b200ac8c7c3b92583604051610b329190611482565b60405180910390a3505050565b6000610b4b8484610864565b90507fffffffffffffffffffffffffffffffffffffffffffffffffffffffffffffffff8114610bc55781811015610bb7576040517f08c379a0000000000000000000000000000000000000000000000000000000008152600401610bae90611cb8565b60405180910390fd5b610bc48484848403610976565b5b50505050565b600073ffffffffffffffffffffffffffffffffffffffff168373ffffffffffffffffffffffffffffffffffffffff1603610c3a576040517f08c379a0000000000000000000000000000000000000000000000000000000008152600401610c3190611d4a565b60405180910390fd5b600073ffffffffffffffffffffffffffffffffffffffff168273ffffffffffffffffffffffffffffffffffffffff1603610ca9576040517f08c379a0000000000000000000000000000000000000000000000000000000008152600401610ca090611ddc565b60405180910390fd5b610cb48383836112a8565b60008060008573ffffffffffffffffffffffffffffffffffffffff1673ffffffffffffffffffffffffffffffffffffffff16815260200190815260200160002054905081811015610d3a576040517f08c379a0000000000000000000000000000000000000000000000000000000008152600401610d3190611e6e565b60405180910390fd5b8181036000808673ffffffffffffffffffffffffffffffffffffffff1673ffffffffffffffffffffffffffffffffffffffff16815260200190815260200160002081905550816000808573ffffffffffffffffffffffffffffffffffffffff1673ffffffffffffffffffffffffffffffffffffffff168152602001908152602001600020600082825401925050819055508273ffffffffffffffffffffffffffffffffffffffff168473ffffffffffffffffffffffffffffffffffffffff167fddf252ad1be2c89b69c2b068fc378daa952ba7f163c4a11628f55a4df523b3ef84604051610e289190611482565b60405180910390a3610e3b8484846112ad565b50505050565b610e4961096e565b73ffffffffffffffffffffffffffffffffffffffff16610e676106b3565b73ffffffffffffffffffffffffffffffffffffffff1614610ebd576040517f08c379a0000000000000000000000000000000000000000000000000000000008152600401610eb490611eda565b60405180910390fd5b565b600073ffffffffffffffffffffffffffffffffffffffff168273ffffffffffffffffffffffffffffffffffffffff1603610f2e576040517f08c379a0000000000000000000000000000000000000000000000000000000008152600401610f2590611f46565b60405180910390fd5b610f3a600083836112a8565b8060026000828254610f4c919061167a565b92505081905550806000808473ffffffffffffffffffffffffffffffffffffffff1673ffffffffffffffffffffffffffffffffffffffff168152602001908152602001600020600082825401925050819055508173ffffffffffffffffffffffffffffffffffffffff16600073ffffffffffffffffffffffffffffffffffffffff167fddf252ad1be2c89b69c2b068fc378daa952ba7f163c4a11628f55a4df523b3ef83604051610ffd9190611482565b60405180910390a3611011600083836112ad565b5050565b600073ffffffffffffffffffffffffffffffffffffffff168273ffffffffffffffffffffffffffffffffffffffff1603611084576040517f08c379a000000000000000000000000000000000000000000000000000000000815260040161107b90611fd8565b60405180910390fd5b611090826000836112a8565b60008060008473ffffffffffffffffffffffffffffffffffffffff1673ffffffffffffffffffffffffffffffffffffffff16815260200190815260200160002054905081811015611116576040517f08c379a000000000000000000000000000000000000000000000000000000000815260040161110d9061206a565b60405180910390fd5b8181036000808573ffffffffffffffffffffffffffffffffffffffff1673ffffffffffffffffffffffffffffffffffffffff1681526020019081526020016000208190555081600260008282540392505081905550600073ffffffffffffffffffffffffffffffffffffffff168373ffffffffffffffffffffffffffffffffffffffff167fddf252ad1be2c89b69c2b068fc378daa952ba7f163c4a11628f55a4df523b3ef846040516111c99190611482565b60405180910390a36111dd836000846112ad565b505050565b6000600560009054906101000a900473ffffffffffffffffffffffffffffffffffffffff16905081600560006101000a81548173ffffffffffffffffffffffffffffffffffffffff021916908373ffffffffffffffffffffffffffffffffffffffff1602179055508173ffffffffffffffffffffffffffffffffffffffff168173ffffffffffffffffffffffffffffffffffffffff167f8be0079c531659141344cd1fd0a4f28419497f9722a3daafe3b4186f6b6457e060405160405180910390a35050565b505050565b505050565b600081519050919050565b600082825260208201905092915050565b60005b838110156112ec5780820151818401526020810190506112d1565b60008484015250505050565b6000601f19601f8301169050919050565b6000611314826112b2565b61131e81856112bd565b935061132e8185602086016112ce565b611337816112f8565b840191505092915050565b6000602082019050818103600083015261135c8184611309565b905092915050565b600080fd5b600073ffffffffffffffffffffffffffffffffffffffff82169050919050565b600061139482611369565b9050919050565b6113a481611389565b81146113af57600080fd5b50565b6000813590506113c18161139b565b92915050565b6000819050919050565b6113da816113c7565b81146113e557600080fd5b50565b6000813590506113f7816113d1565b92915050565b6000806040838503121561141457611413611364565b5b6000611422858286016113b2565b9250506020611433858286016113e8565b9150509250929050565b60008115159050919050565b6114528161143d565b82525050565b600060208201905061146d6000830184611449565b92915050565b61147c816113c7565b82525050565b60006020820190506114976000830184611473565b92915050565b6000806000606084860312156114b6576114b5611364565b5b60006114c4868287016113b2565b93505060206114d5868287016113b2565b92505060406114e6868287016113e8565b9150509250925092565b600060ff82169050919050565b611506816114f0565b82525050565b600060208201905061152160008301846114fd565b92915050565b60006020828403121561153d5761153c611364565b5b600061154b848285016113e8565b91505092915050565b60006020828403121561156a57611569611364565b5b6000611578848285016113b2565b91505092915050565b61158a81611389565b82525050565b60006020820190506115a56000830184611581565b92915050565b600080604083850312156115c2576115c1611364565b5b60006115d0858286016113b2565b92505060206115e1858286016113b2565b9150509250929050565b7f4e487b7100000000000000000000000000000000000000000000000000000000600052602260045260246000fd5b6000600282049050600182168061163257607f821691505b602082108103611645576116446115eb565b5b50919050565b7f4e487b7100000000000000000000000000000000000000000000000000000000600052601160045260246000fd5b6000611685826113c7565b9150611690836113c7565b92508282019050808211156116a8576116a761164b565b5b92915050565b60008160011c9050919050565b6000808291508390505b6001851115611705578086048111156116e1576116e061164b565b5b60018516156116f05780820291505b80810290506116fe856116ae565b94506116c5565b94509492505050565b60008261171e57600190506117da565b8161172c57600090506117da565b8160018114611742576002811461174c5761177b565b60019150506117da565b60ff84111561175e5761175d61164b565b5b8360020a9150848211156117755761177461164b565b5b506117da565b5060208310610133831016604e8410600b84101617156117b05782820a9050838111156117ab576117aa61164b565b5b6117da565b6117bd84848460016116bb565b925090508184048111156117d4576117d361164b565b5b81810290505b9392505050565b60006117ec826113c7565b91506117f7836114f0565b92506118247fffffffffffffffffffffffffffffffffffffffffffffffffffffffffffffffff848461170e565b905092915050565b6000611837826113c7565b9150611842836113c7565b9250828202611850816113c7565b915082820484148315176118675761186661164b565b5b5092915050565b7f596f7520646f206e6f74206861766520656e6f7567682044474e20746f6b656e60008201527f7320746f2072656465656d2074686973206974656d2100000000000000000000602082015250565b60006118ca6036836112bd565b91506118d58261186e565b604082019050919050565b600060208201905081810360008301526118f9816118bd565b9050919050565b7f596f7520646f6e2774206861766520656e6f7567682044474e20746f2062757260008201527f6e21000000000000000000000000000000000000000000000000000000000000602082015250565b600061195c6022836112bd565b915061196782611900565b604082019050919050565b6000602082019050818103600083015261198b8161194f565b9050919050565b7f45524332303a2064656372656173656420616c6c6f77616e63652062656c6f7760008201527f207a65726f000000000000000000000000000000000000000000000000000000602082015250565b60006119ee6025836112bd565b91506119f982611992565b604082019050919050565b60006020820190508181036000830152611a1d816119e1565b9050919050565b7f596f7520646f206e6f74206861766520656e6f7567682044474e20746f6b656e60008201527f7321000000000000000000000000000000000000000000000000000000000000602082015250565b6000611a806022836112bd565b9150611a8b82611a24565b604082019050919050565b60006020820190508181036000830152611aaf81611a73565b9050919050565b7f4f776e61626c653a206e6577206f776e657220697320746865207a65726f206160008201527f6464726573730000000000000000000000000000000000000000000000000000602082015250565b6000611b126026836112bd565b9150611b1d82611ab6565b604082019050919050565b60006020820190508181036000830152611b4181611b05565b9050919050565b7f45524332303a20617070726f76652066726f6d20746865207a65726f2061646460008201527f7265737300000000000000000000000000000000000000000000000000000000602082015250565b6000611ba46024836112bd565b9150611baf82611b48565b604082019050919050565b60006020820190508181036000830152611bd381611b97565b9050919050565b7f45524332303a20617070726f766520746f20746865207a65726f20616464726560008201527f7373000000000000000000000000000000000000000000000000000000000000602082015250565b6000611c366022836112bd565b9150611c4182611bda565b604082019050919050565b60006020820190508181036000830152611c6581611c29565b9050919050565b7f45524332303a20696e73756666696369656e7420616c6c6f77616e6365000000600082015250565b6000611ca2601d836112bd565b9150611cad82611c6c565b602082019050919050565b60006020820190508181036000830152611cd181611c95565b9050919050565b7f45524332303a207472616e736665722066726f6d20746865207a65726f20616460008201527f6472657373000000000000000000000000000000000000000000000000000000602082015250565b6000611d346025836112bd565b9150611d3f82611cd8565b604082019050919050565b60006020820190508181036000830152611d6381611d27565b9050919050565b7f45524332303a207472616e7366657220746f20746865207a65726f206164647260008201527f6573730000000000000000000000000000000000000000000000000000000000602082015250565b6000611dc66023836112bd565b9150611dd182611d6a565b604082019050919050565b60006020820190508181036000830152611df581611db9565b9050919050565b7f45524332303a207472616e7366657220616d6f756e742065786365656473206260008201527f616c616e63650000000000000000000000000000000000000000000000000000602082015250565b6000611e586026836112bd565b9150611e6382611dfc565b604082019050919050565b60006020820190508181036000830152611e8781611e4b565b9050919050565b7f4f776e61626c653a2063616c6c6572206973206e6f7420746865206f776e6572600082015250565b6000611ec46020836112bd565b9150611ecf82611e8e565b602082019050919050565b60006020820190508181036000830152611ef381611eb7565b9050919050565b7f45524332303a206d696e7420746f20746865207a65726f206164647265737300600082015250565b6000611f30601f836112bd565b9150611f3b82611efa565b602082019050919050565b60006020820190508181036000830152611f5f81611f23565b9050919050565b7f45524332303a206275726e2066726f6d20746865207a65726f2061646472657360008201527f7300000000000000000000000000000000000000000000000000000000000000602082015250565b6000611fc26021836112bd565b9150611fcd82611f66565b604082019050919050565b60006020820190508181036000830152611ff181611fb5565b9050919050565b7f45524332303a206275726e20616d6f756e7420657863656564732062616c616e60008201527f6365000000000000000000000000000000000000000000000000000000000000602082015250565b60006120546022836112bd565b915061205f82611ff8565b604082019050919050565b6000602082019050818103600083015261208381612047565b905091905056fea2646970667358221220f12687e7d107024db77b95e1c7582a65efb4f9ec7cf9cda498f94336353c1a1664736f6c63430008120033",
  "linkReferences": {},
  "deployedLinkReferences": {}
}