{
  "_format": "hh-sol-artifact-1",
  "contractName": "DegenToken",
  "sourceName": "contracts/DegenToken.sol",
  "abi": [
    {
      "inputs": [],
      "stateMutability": "nonpayable",
      "type": "constructor"
    },
    {
      "anonymous": false,
      "inputs": [
        {
          "indexed": true,
          "internalType": "address",
          "name": "owner",
          "type": "address"
        },
        {
          "indexed": true,
          "internalType": "address",
          "name": "spender",
          "type": "address"
        },
        {
          "indexed": false,
          "internalType": "uint256",
          "name": "value",
          "type": "uint256"
        }
      ],
      "name": "Approval",
      "type": "event"
    },
    {
      "anonymous": false,
      "inputs": [
        {
          "indexed": true,
          "internalType": "address",
          "name": "previousOwner",
          "type": "address"
        },
        {
          "indexed": true,
          "internalType": "address",
          "name": "newOwner",
          "type": "address"
        }
      ],
      "name": "OwnershipTransferred",
      "type": "event"
    },
    {
      "anonymous": false,
      "inputs": [
        {
          "indexed": true,
          "internalType": "address",
          "name": "from",
          "type": "address"
        },
        {
          "indexed": true,
          "internalType": "address",
          "name": "to",
          "type": "address"
        },
        {
          "indexed": false,
          "internalType": "uint256",
          "name": "value",
          "type": "uint256"
        }
      ],
      "name": "Transfer",
      "type": "event"
    },
    {
      "inputs": [
        {
          "internalType": "address",
          "name": "owner",
          "type": "address"
        },
        {
          "internalType": "address",
          "name": "spender",
          "type": "address"
        }
      ],
      "name": "allowance",
      "outputs": [
        {
          "internalType": "uint256",
          "name": "",
          "type": "uint256"
        }
      ],
      "stateMutability": "view",
      "type": "function"
    },
    {
      "inputs": [
        {
          "internalType": "address",
          "name": "spender",
          "type": "address"
        },
        {
          "internalType": "uint256",
          "name": "amount",
          "type": "uint256"
        }
      ],
      "name": "approve",
      "outputs": [
        {
          "internalType": "bool",
          "name": "",
          "type": "bool"
        }
      ],
      "stateMutability": "nonpayable",
      "type": "function"
    },
    {
      "inputs": [
        {
          "internalType": "address",
          "name": "account",
          "type": "address"
        }
      ],
      "name": "balanceOf",
      "outputs": [
        {
          "internalType": "uint256",
          "name": "",
          "type": "uint256"
        }
      ],
      "stateMutability": "view",
      "type": "function"
    },
    {
      "inputs": [
        {
          "internalType": "uint256",
          "name": "amount",
          "type": "uint256"
        }
      ],
      "name": "burn",
      "outputs": [],
      "stateMutability": "nonpayable",
      "type": "function"
    },
    {
      "inputs": [
        {
          "internalType": "address",
          "name": "account",
          "type": "address"
        },
        {
          "internalType": "uint256",
          "name": "amount",
          "type": "uint256"
        }
      ],
      "name": "burnFrom",
      "outputs": [],
      "stateMutability": "nonpayable",
      "type": "function"
    },
    {
      "inputs": [
        {
          "internalType": "uint256",
          "name": "_value",
          "type": "uint256"
        }
      ],
      "name": "burnTokens",
      "outputs": [],
      "stateMutability": "nonpayable",
      "type": "function"
    },
    {
      "inputs": [],
      "name": "decimals",
      "outputs": [
        {
          "internalType": "uint8",
          "name": "",
          "type": "uint8"
        }
      ],
      "stateMutability": "view",
      "type": "function"
    },
    {
      "inputs": [
        {
          "internalType": "address",
          "name": "spender",
          "type": "address"
        },
        {
          "internalType": "uint256",
          "name": "subtractedValue",
          "type": "uint256"
        }
      ],
      "name": "decreaseAllowance",
      "outputs": [
        {
          "internalType": "bool",
          "name": "",
          "type": "bool"
        }
      ],
      "stateMutability": "nonpayable",
      "type": "function"
    },
    {
      "inputs": [],
      "name": "getBalance",
      "outputs": [
        {
          "internalType": "uint256",
          "name": "",
          "type": "uint256"
        }
      ],
      "stateMutability": "view",
      "type": "function"
    },
    {
      "inputs": [
        {
          "internalType": "address",
          "name": "spender",
          "type": "address"
        },
        {
          "internalType": "uint256",
          "name": "addedValue",
          "type": "uint256"
        }
      ],
      "name": "increaseAllowance",
      "outputs": [
        {
          "internalType": "bool",
          "name": "",
          "type": "bool"
        }
      ],
      "stateMutability": "nonpayable",
      "type": "function"
    },
    {
      "inputs": [
        {
          "internalType": "address",
          "name": "to",
          "type": "address"
        },
        {
          "internalType": "uint256",
          "name": "amount",
          "type": "uint256"
        }
      ],
      "name": "mint",
      "outputs": [],
      "stateMutability": "nonpayable",
      "type": "function"
    },
    {
      "inputs": [],
      "name": "name",
      "outputs": [
        {
          "internalType": "string",
          "name": "",
          "type": "string"
        }
      ],
      "stateMutability": "view",
      "type": "function"
    },
    {
      "inputs": [],
      "name": "owner",
      "outputs": [
        {
          "internalType": "address",
          "name": "",
          "type": "address"
        }
      ],
      "stateMutability": "view",
      "type": "function"
    },
    {
      "inputs": [
        {
          "internalType": "string",
          "name": "item",
          "type": "string"
        }
      ],
      "name": "redeemItem",
      "outputs": [],
      "stateMutability": "nonpayable",
      "type": "function"
    },
    {
      "inputs": [],
      "name": "renounceOwnership",
      "outputs": [],
      "stateMutability": "nonpayable",
      "type": "function"
    },
    {
      "inputs": [],
      "name": "symbol",
      "outputs": [
        {
          "internalType": "string",
          "name": "",
          "type": "string"
        }
      ],
      "stateMutability": "view",
      "type": "function"
    },
    {
      "inputs": [],
      "name": "totalSupply",
      "outputs": [
        {
          "internalType": "uint256",
          "name": "",
          "type": "uint256"
        }
      ],
      "stateMutability": "view",
      "type": "function"
    },
    {
      "inputs": [
        {
          "internalType": "address",
          "name": "to",
          "type": "address"
        },
        {
          "internalType": "uint256",
          "name": "amount",
          "type": "uint256"
        }
      ],
      "name": "transfer",
      "outputs": [
        {
          "internalType": "bool",
          "name": "",
          "type": "bool"
        }
      ],
      "stateMutability": "nonpayable",
      "type": "function"
    },
    {
      "inputs": [
        {
          "internalType": "address",
          "name": "from",
          "type": "address"
        },
        {
          "internalType": "address",
          "name": "to",
          "type": "address"
        },
        {
          "internalType": "uint256",
          "name": "amount",
          "type": "uint256"
        }
      ],
      "name": "transferFrom",
      "outputs": [
        {
          "internalType": "bool",
          "name": "",
          "type": "bool"
        }
      ],
      "stateMutability": "nonpayable",
      "type": "function"
    },
    {
      "inputs": [
        {
          "internalType": "address",
          "name": "newOwner",
          "type": "address"
        }
      ],
      "name": "transferOwnership",
      "outputs": [],
      "stateMutability": "nonpayable",
      "type": "function"
    },
    {
      "inputs": [
        {
          "internalType": "address",
          "name": "_receiver",
          "type": "address"
        },
        {
          "internalType": "uint256",
          "name": "_value",
          "type": "uint256"
        }
      ],
      "name": "transferTokens",
      "outputs": [],
      "stateMutability": "nonpayable",
      "type": "function"
    }
  ],
  "bytecode": "0x60806040523480156200001157600080fd5b506040518060400160405280600581526020017f446567656e0000000000000000000000000000000000000000000000000000008152506040518060400160405280600381526020017f44474e000000000000000000000000000000000000000000000000000000000081525081600390816200008f919062000412565b508060049081620000a1919062000412565b505050620000c4620000b8620000ca60201b60201c565b620000d260201b60201c565b620004f9565b600033905090565b6000600560009054906101000a900473ffffffffffffffffffffffffffffffffffffffff16905081600560006101000a81548173ffffffffffffffffffffffffffffffffffffffff021916908373ffffffffffffffffffffffffffffffffffffffff1602179055508173ffffffffffffffffffffffffffffffffffffffff168173ffffffffffffffffffffffffffffffffffffffff167f8be0079c531659141344cd1fd0a4f28419497f9722a3daafe3b4186f6b6457e060405160405180910390a35050565b600081519050919050565b7f4e487b7100000000000000000000000000000000000000000000000000000000600052604160045260246000fd5b7f4e487b7100000000000000000000000000000000000000000000000000000000600052602260045260246000fd5b600060028204905060018216806200021a57607f821691505b60208210810362000230576200022f620001d2565b5b50919050565b60008190508160005260206000209050919050565b60006020601f8301049050919050565b600082821b905092915050565b6000600883026200029a7fffffffffffffffffffffffffffffffffffffffffffffffffffffffffffffffff826200025b565b620002a686836200025b565b95508019841693508086168417925050509392505050565b6000819050919050565b6000819050919050565b6000620002f3620002ed620002e784620002be565b620002c8565b620002be565b9050919050565b6000819050919050565b6200030f83620002d2565b620003276200031e82620002fa565b84845462000268565b825550505050565b600090565b6200033e6200032f565b6200034b81848462000304565b505050565b5b8181101562000373576200036760008262000334565b60018101905062000351565b5050565b601f821115620003c2576200038c8162000236565b62000397846200024b565b81016020851015620003a7578190505b620003bf620003b6856200024b565b83018262000350565b50505b505050565b600082821c905092915050565b6000620003e760001984600802620003c7565b1980831691505092915050565b6000620004028383620003d4565b9150826002028217905092915050565b6200041d8262000198565b67ffffffffffffffff811115620004395762000438620001a3565b5b62000445825462000201565b6200045282828562000377565b600060209050601f8311600181146200048a576000841562000475578287015190505b620004818582620003f4565b865550620004f1565b601f1984166200049a8662000236565b60005b82811015620004c4578489015182556001820191506020850194506020810190506200049d565b86831015620004e45784890151620004e0601f891682620003d4565b8355505b6001600288020188555050505b505050505050565b6124e880620005096000396000f3fe608060405234801561001057600080fd5b50600436106101375760003560e01c806370a08231116100b8578063a457c2d71161007c578063a457c2d71461032a578063a9059cbb1461035a578063ac60345b1461038a578063bec3fa17146103a6578063dd62ed3e146103c2578063f2fde38b146103f257610137565b806370a0823114610298578063715018a6146102c857806379cc6790146102d25780638da5cb5b146102ee57806395d89b411461030c57610137565b8063313ce567116100ff578063313ce567146101f6578063395093511461021457806340c10f191461024457806342966c68146102605780636d1b229d1461027c57610137565b806306fdde031461013c578063095ea7b31461015a57806312065fe01461018a57806318160ddd146101a857806323b872dd146101c6575b600080fd5b61014461040e565b604051610151919061166b565b60405180910390f35b610174600480360381019061016f9190611735565b6104a0565b6040516101819190611790565b60405180910390f35b6101926104c3565b60405161019f91906117ba565b60405180910390f35b6101b06104d3565b6040516101bd91906117ba565b60405180910390f35b6101e060048036038101906101db91906117d5565b6104dd565b6040516101ed9190611790565b60405180910390f35b6101fe61050c565b60405161020b9190611844565b60405180910390f35b61022e60048036038101906102299190611735565b610515565b60405161023b9190611790565b60405180910390f35b61025e60048036038101906102599190611735565b61054c565b005b61027a6004803603810190610275919061185f565b610562565b005b6102966004803603810190610291919061185f565b610576565b005b6102b260048036038101906102ad919061188c565b6105cd565b6040516102bf91906117ba565b60405180910390f35b6102d0610615565b005b6102ec60048036038101906102e79190611735565b610629565b005b6102f6610649565b60405161030391906118c8565b60405180910390f35b610314610673565b604051610321919061166b565b60405180910390f35b610344600480360381019061033f9190611735565b610705565b6040516103519190611790565b60405180910390f35b610374600480360381019061036f9190611735565b61077c565b6040516103819190611790565b60405180910390f35b6103a4600480360381019061039f9190611a18565b61079f565b005b6103c060048036038101906103bb9190611735565b610a17565b005b6103dc60048036038101906103d79190611a61565b610a72565b6040516103e991906117ba565b60405180910390f35b61040c6004803603810190610407919061188c565b610af9565b005b60606003805461041d90611ad0565b80601f016020809104026020016040519081016040528092919081815260200182805461044990611ad0565b80156104965780601f1061046b57610100808354040283529160200191610496565b820191906000526020600020905b81548152906001019060200180831161047957829003601f168201915b5050505050905090565b6000806104ab610b7c565b90506104b8818585610b84565b600191505092915050565b60006104ce336105cd565b905090565b6000600254905090565b6000806104e8610b7c565b90506104f5858285610d4d565b610500858585610dd9565b60019150509392505050565b60006012905090565b600080610520610b7c565b90506105418185856105328589610a72565b61053c9190611b30565b610b84565b600191505092915050565b61055461104f565b61055e82826110cd565b5050565b61057361056d610b7c565b82611223565b50565b80610580336105cd565b10156105c1576040517f08c379a00000000000000000000000000000000000000000000000000000000081526004016105b890611bd6565b60405180910390fd5b6105ca81610562565b50565b60008060008373ffffffffffffffffffffffffffffffffffffffff1673ffffffffffffffffffffffffffffffffffffffff168152602001908152602001600020549050919050565b61061d61104f565b61062760006113f0565b565b61063b82610635610b7c565b83610d4d565b6106458282611223565b5050565b6000600560009054906101000a900473ffffffffffffffffffffffffffffffffffffffff16905090565b60606004805461068290611ad0565b80601f01602080910402602001604051908101604052809291908181526020018280546106ae90611ad0565b80156106fb5780601f106106d0576101008083540402835291602001916106fb565b820191906000526020600020905b8154815290600101906020018083116106de57829003601f168201915b5050505050905090565b600080610710610b7c565b9050600061071e8286610a72565b905083811015610763576040517f08c379a000000000000000000000000000000000000000000000000000000000815260040161075a90611c68565b60405180910390fd5b6107708286868403610b84565b60019250505092915050565b600080610787610b7c565b9050610794818585610dd9565b600191505092915050565b60006107e0826040518060400160405280600581526020017f53686972740000000000000000000000000000000000000000000000000000008152506114b6565b1561085a5760c89050806107f3336105cd565b1015610834576040517f08c379a000000000000000000000000000000000000000000000000000000000815260040161082b90611cfa565b60405180910390fd5b61085560405180606001604052806027815260200161248c6027913961150f565b610a09565b610899826040518060400160405280600581526020017f42616467650000000000000000000000000000000000000000000000000000008152506114b6565b156109135760649050806108ac336105cd565b10156108ed576040517f08c379a00000000000000000000000000000000000000000000000000000000081526004016108e490611cfa565b60405180910390fd5b61090e6040518060600160405280602781526020016124406027913961150f565b610a08565b610952826040518060400160405280600381526020017f4d756700000000000000000000000000000000000000000000000000000000008152506114b6565b156109cc576032905080610965336105cd565b10156109a6576040517f08c379a000000000000000000000000000000000000000000000000000000000815260040161099d90611cfa565b60405180910390fd5b6109c76040518060600160405280602581526020016124676025913961150f565b610a07565b6040517f08c379a00000000000000000000000000000000000000000000000000000000081526004016109fe90611d66565b60405180910390fd5b5b5b610a133382611223565b5050565b80610a21336105cd565b1015610a62576040517f08c379a0000000000000000000000000000000000000000000000000000000008152600401610a5990611df8565b60405180910390fd5b610a6d3383836104dd565b505050565b6000600160008473ffffffffffffffffffffffffffffffffffffffff1673ffffffffffffffffffffffffffffffffffffffff16815260200190815260200160002060008373ffffffffffffffffffffffffffffffffffffffff1673ffffffffffffffffffffffffffffffffffffffff16815260200190815260200160002054905092915050565b610b0161104f565b600073ffffffffffffffffffffffffffffffffffffffff168173ffffffffffffffffffffffffffffffffffffffff1603610b70576040517f08c379a0000000000000000000000000000000000000000000000000000000008152600401610b6790611e8a565b60405180910390fd5b610b79816113f0565b50565b600033905090565b600073ffffffffffffffffffffffffffffffffffffffff168373ffffffffffffffffffffffffffffffffffffffff1603610bf3576040517f08c379a0000000000000000000000000000000000000000000000000000000008152600401610bea90611f1c565b60405180910390fd5b600073ffffffffffffffffffffffffffffffffffffffff168273ffffffffffffffffffffffffffffffffffffffff1603610c62576040517f08c379a0000000000000000000000000000000000000000000000000000000008152600401610c5990611fae565b60405180910390fd5b80600160008573ffffffffffffffffffffffffffffffffffffffff1673ffffffffffffffffffffffffffffffffffffffff16815260200190815260200160002060008473ffffffffffffffffffffffffffffffffffffffff1673ffffffffffffffffffffffffffffffffffffffff168152602001908152602001600020819055508173ffffffffffffffffffffffffffffffffffffffff168373ffffffffffffffffffffffffffffffffffffffff167f8c5be1e5ebec7d5bd14f71427d1e84f3dd0314c0f7b2291e5b200ac8c7c3b92583604051610d4091906117ba565b60405180910390a3505050565b6000610d598484610a72565b90507fffffffffffffffffffffffffffffffffffffffffffffffffffffffffffffffff8114610dd35781811015610dc5576040517f08c379a0000000000000000000000000000000000000000000000000000000008152600401610dbc9061201a565b60405180910390fd5b610dd28484848403610b84565b5b50505050565b600073ffffffffffffffffffffffffffffffffffffffff168373ffffffffffffffffffffffffffffffffffffffff1603610e48576040517f08c379a0000000000000000000000000000000000000000000000000000000008152600401610e3f906120ac565b60405180910390fd5b600073ffffffffffffffffffffffffffffffffffffffff168273ffffffffffffffffffffffffffffffffffffffff1603610eb7576040517f08c379a0000000000000000000000000000000000000000000000000000000008152600401610eae9061213e565b60405180910390fd5b610ec28383836115a8565b60008060008573ffffffffffffffffffffffffffffffffffffffff1673ffffffffffffffffffffffffffffffffffffffff16815260200190815260200160002054905081811015610f48576040517f08c379a0000000000000000000000000000000000000000000000000000000008152600401610f3f906121d0565b60405180910390fd5b8181036000808673ffffffffffffffffffffffffffffffffffffffff1673ffffffffffffffffffffffffffffffffffffffff16815260200190815260200160002081905550816000808573ffffffffffffffffffffffffffffffffffffffff1673ffffffffffffffffffffffffffffffffffffffff168152602001908152602001600020600082825401925050819055508273ffffffffffffffffffffffffffffffffffffffff168473ffffffffffffffffffffffffffffffffffffffff167fddf252ad1be2c89b69c2b068fc378daa952ba7f163c4a11628f55a4df523b3ef8460405161103691906117ba565b60405180910390a36110498484846115ad565b50505050565b611057610b7c565b73ffffffffffffffffffffffffffffffffffffffff16611075610649565b73ffffffffffffffffffffffffffffffffffffffff16146110cb576040517f08c379a00000000000000000000000000000000000000000000000000000000081526004016110c29061223c565b60405180910390fd5b565b600073ffffffffffffffffffffffffffffffffffffffff168273ffffffffffffffffffffffffffffffffffffffff160361113c576040517f08c379a0000000000000000000000000000000000000000000000000000000008152600401611133906122a8565b60405180910390fd5b611148600083836115a8565b806002600082825461115a9190611b30565b92505081905550806000808473ffffffffffffffffffffffffffffffffffffffff1673ffffffffffffffffffffffffffffffffffffffff168152602001908152602001600020600082825401925050819055508173ffffffffffffffffffffffffffffffffffffffff16600073ffffffffffffffffffffffffffffffffffffffff167fddf252ad1be2c89b69c2b068fc378daa952ba7f163c4a11628f55a4df523b3ef8360405161120b91906117ba565b60405180910390a361121f600083836115ad565b5050565b600073ffffffffffffffffffffffffffffffffffffffff168273ffffffffffffffffffffffffffffffffffffffff1603611292576040517f08c379a00000000000000000000000000000000000000000000000000000000081526004016112899061233a565b60405180910390fd5b61129e826000836115a8565b60008060008473ffffffffffffffffffffffffffffffffffffffff1673ffffffffffffffffffffffffffffffffffffffff16815260200190815260200160002054905081811015611324576040517f08c379a000000000000000000000000000000000000000000000000000000000815260040161131b906123cc565b60405180910390fd5b8181036000808573ffffffffffffffffffffffffffffffffffffffff1673ffffffffffffffffffffffffffffffffffffffff1681526020019081526020016000208190555081600260008282540392505081905550600073ffffffffffffffffffffffffffffffffffffffff168373ffffffffffffffffffffffffffffffffffffffff167fddf252ad1be2c89b69c2b068fc378daa952ba7f163c4a11628f55a4df523b3ef846040516113d791906117ba565b60405180910390a36113eb836000846115ad565b505050565b6000600560009054906101000a900473ffffffffffffffffffffffffffffffffffffffff16905081600560006101000a81548173ffffffffffffffffffffffffffffffffffffffff021916908373ffffffffffffffffffffffffffffffffffffffff1602179055508173ffffffffffffffffffffffffffffffffffffffff168173ffffffffffffffffffffffffffffffffffffffff167f8be0079c531659141344cd1fd0a4f28419497f9722a3daafe3b4186f6b6457e060405160405180910390a35050565b6000816040516020016114c99190612428565b60405160208183030381529060405280519060200120836040516020016114f09190612428565b6040516020818303038152906040528051906020012014905092915050565b6115a581604051602401611523919061166b565b6040516020818303038152906040527f41304fac000000000000000000000000000000000000000000000000000000007bffffffffffffffffffffffffffffffffffffffffffffffffffffffff19166020820180517bffffffffffffffffffffffffffffffffffffffffffffffffffffffff83818316178352505050506115b2565b50565b505050565b505050565b60008151905060006a636f6e736f6c652e6c6f679050602083016000808483855afa5050505050565b600081519050919050565b600082825260208201905092915050565b60005b838110156116155780820151818401526020810190506115fa565b60008484015250505050565b6000601f19601f8301169050919050565b600061163d826115db565b61164781856115e6565b93506116578185602086016115f7565b61166081611621565b840191505092915050565b600060208201905081810360008301526116858184611632565b905092915050565b6000604051905090565b600080fd5b600080fd5b600073ffffffffffffffffffffffffffffffffffffffff82169050919050565b60006116cc826116a1565b9050919050565b6116dc816116c1565b81146116e757600080fd5b50565b6000813590506116f9816116d3565b92915050565b6000819050919050565b611712816116ff565b811461171d57600080fd5b50565b60008135905061172f81611709565b92915050565b6000806040838503121561174c5761174b611697565b5b600061175a858286016116ea565b925050602061176b85828601611720565b9150509250929050565b60008115159050919050565b61178a81611775565b82525050565b60006020820190506117a56000830184611781565b92915050565b6117b4816116ff565b82525050565b60006020820190506117cf60008301846117ab565b92915050565b6000806000606084860312156117ee576117ed611697565b5b60006117fc868287016116ea565b935050602061180d868287016116ea565b925050604061181e86828701611720565b9150509250925092565b600060ff82169050919050565b61183e81611828565b82525050565b60006020820190506118596000830184611835565b92915050565b60006020828403121561187557611874611697565b5b600061188384828501611720565b91505092915050565b6000602082840312156118a2576118a1611697565b5b60006118b0848285016116ea565b91505092915050565b6118c2816116c1565b82525050565b60006020820190506118dd60008301846118b9565b92915050565b600080fd5b600080fd5b7f4e487b7100000000000000000000000000000000000000000000000000000000600052604160045260246000fd5b61192582611621565b810181811067ffffffffffffffff82111715611944576119436118ed565b5b80604052505050565b600061195761168d565b9050611963828261191c565b919050565b600067ffffffffffffffff821115611983576119826118ed565b5b61198c82611621565b9050602081019050919050565b82818337600083830152505050565b60006119bb6119b684611968565b61194d565b9050828152602081018484840111156119d7576119d66118e8565b5b6119e2848285611999565b509392505050565b600082601f8301126119ff576119fe6118e3565b5b8135611a0f8482602086016119a8565b91505092915050565b600060208284031215611a2e57611a2d611697565b5b600082013567ffffffffffffffff811115611a4c57611a4b61169c565b5b611a58848285016119ea565b91505092915050565b60008060408385031215611a7857611a77611697565b5b6000611a86858286016116ea565b9250506020611a97858286016116ea565b9150509250929050565b7f4e487b7100000000000000000000000000000000000000000000000000000000600052602260045260246000fd5b60006002820490506001821680611ae857607f821691505b602082108103611afb57611afa611aa1565b5b50919050565b7f4e487b7100000000000000000000000000000000000000000000000000000000600052601160045260246000fd5b6000611b3b826116ff565b9150611b46836116ff565b9250828201905080821115611b5e57611b5d611b01565b5b92915050565b7f596f7520646f6e2774206861766520656e6f7567682044474e20746f2062757260008201527f6e21000000000000000000000000000000000000000000000000000000000000602082015250565b6000611bc06022836115e6565b9150611bcb82611b64565b604082019050919050565b60006020820190508181036000830152611bef81611bb3565b9050919050565b7f45524332303a2064656372656173656420616c6c6f77616e63652062656c6f7760008201527f207a65726f000000000000000000000000000000000000000000000000000000602082015250565b6000611c526025836115e6565b9150611c5d82611bf6565b604082019050919050565b60006020820190508181036000830152611c8181611c45565b9050919050565b7f596f7520646f206e6f74206861766520656e6f7567682044474e20746f6b656e60008201527f7320746f2072656465656d2074686973206974656d2100000000000000000000602082015250565b6000611ce46036836115e6565b9150611cef82611c88565b604082019050919050565b60006020820190508181036000830152611d1381611cd7565b9050919050565b7f496e76616c6964206974656d2074797065210000000000000000000000000000600082015250565b6000611d506012836115e6565b9150611d5b82611d1a565b602082019050919050565b60006020820190508181036000830152611d7f81611d43565b9050919050565b7f596f7520646f206e6f74206861766520656e6f7567682044474e20746f6b656e60008201527f7321000000000000000000000000000000000000000000000000000000000000602082015250565b6000611de26022836115e6565b9150611ded82611d86565b604082019050919050565b60006020820190508181036000830152611e1181611dd5565b9050919050565b7f4f776e61626c653a206e6577206f776e657220697320746865207a65726f206160008201527f6464726573730000000000000000000000000000000000000000000000000000602082015250565b6000611e746026836115e6565b9150611e7f82611e18565b604082019050919050565b60006020820190508181036000830152611ea381611e67565b9050919050565b7f45524332303a20617070726f76652066726f6d20746865207a65726f2061646460008201527f7265737300000000000000000000000000000000000000000000000000000000602082015250565b6000611f066024836115e6565b9150611f1182611eaa565b604082019050919050565b60006020820190508181036000830152611f3581611ef9565b9050919050565b7f45524332303a20617070726f766520746f20746865207a65726f20616464726560008201527f7373000000000000000000000000000000000000000000000000000000000000602082015250565b6000611f986022836115e6565b9150611fa382611f3c565b604082019050919050565b60006020820190508181036000830152611fc781611f8b565b9050919050565b7f45524332303a20696e73756666696369656e7420616c6c6f77616e6365000000600082015250565b6000612004601d836115e6565b915061200f82611fce565b602082019050919050565b6000602082019050818103600083015261203381611ff7565b9050919050565b7f45524332303a207472616e736665722066726f6d20746865207a65726f20616460008201527f6472657373000000000000000000000000000000000000000000000000000000602082015250565b60006120966025836115e6565b91506120a18261203a565b604082019050919050565b600060208201905081810360008301526120c581612089565b9050919050565b7f45524332303a207472616e7366657220746f20746865207a65726f206164647260008201527f6573730000000000000000000000000000000000000000000000000000000000602082015250565b60006121286023836115e6565b9150612133826120cc565b604082019050919050565b600060208201905081810360008301526121578161211b565b9050919050565b7f45524332303a207472616e7366657220616d6f756e742065786365656473206260008201527f616c616e63650000000000000000000000000000000000000000000000000000602082015250565b60006121ba6026836115e6565b91506121c58261215e565b604082019050919050565b600060208201905081810360008301526121e9816121ad565b9050919050565b7f4f776e61626c653a2063616c6c6572206973206e6f7420746865206f776e6572600082015250565b60006122266020836115e6565b9150612231826121f0565b602082019050919050565b6000602082019050818103600083015261225581612219565b9050919050565b7f45524332303a206d696e7420746f20746865207a65726f206164647265737300600082015250565b6000612292601f836115e6565b915061229d8261225c565b602082019050919050565b600060208201905081810360008301526122c181612285565b9050919050565b7f45524332303a206275726e2066726f6d20746865207a65726f2061646472657360008201527f7300000000000000000000000000000000000000000000000000000000000000602082015250565b60006123246021836115e6565b915061232f826122c8565b604082019050919050565b6000602082019050818103600083015261235381612317565b9050919050565b7f45524332303a206275726e20616d6f756e7420657863656564732062616c616e60008201527f6365000000000000000000000000000000000000000000000000000000000000602082015250565b60006123b66022836115e6565b91506123c18261235a565b604082019050919050565b600060208201905081810360008301526123e5816123a9565b9050919050565b600081905092915050565b6000612402826115db565b61240c81856123ec565b935061241c8185602086016115f7565b80840191505092915050565b600061243482846123f7565b91508190509291505056fe5468616e6b20796f7520666f722072656465656d696e6720612062616467652120456e6a6f79215468616e6b20796f7520666f722072656465656d696e672061206d75672120456e6a6f79215468616e6b20796f7520666f722072656465656d696e6720612073686972742120456e6a6f7921a2646970667358221220bafb58a264628582b3f48ba5b6e06e88e1a123a729605d2fc4c2b3e58341369564736f6c63430008120033",
  "linkReferences": {},
  "deployedLinkReferences": {}
}